:100000000C942E010C945F010C945F010C945F0121
:100010000C945F010C945F010C945F010C945F01E0
:100020000C945F010C945F010C945F010C945F01D0
:100030000C945F010C945F010C945F010C945F01C0
:100040000C945F010C945F010C945F010C945F01B0
:100050000C945F010C945F010C945F010C941C05DF
:100060000C945F010C94E6040C94BC040C945F01A6
:100070000C945F010C945F010C945F010C945F0180
:100080000C945F010C945F010C945F010C945F0170
:100090000C945F010C945F010C945F010C945F0160
:1000A0000C945F010C945F010C945F010C945F0150
:1000B0000C945F010C945F010C945F010C945F0140
:1000C0000C945F010C945F010C945F010C945F0130
:1000D0000C945F010C945F010C945F010C945F0120
:1000E0000C945F010C94D0010C94FB020C94280337
:1000F0000C94A7040C9430030C940A030C94630230
:100100000C9422030C9466050C9416020C94FF02C6
:100110000C941E030C9403030C9436030C941403E8
:100120000C9407030C9480010C94E9020C942C03AA
:100130000C94DE010C941A030C94E4020C94BC01A0
:100140000C9410030C9466030C943A030C9465030E
:100150000C94AD0100000A0B02090C0D0E080703F8
:10016000040100000000000000000000000000008A
:10017000000000000000000000000000000000007F
:10018000121110000000000000000000000000003C
:100190000000000000000000000000002200250018
:1001A00028002B002E003100340002010000050160
:1001B00008010B0100002100240027002A002D0067
:1001C0003000330001010000040107010A010505A8
:1001D0000505070508080808020202020A0A0808BD
:1001E00004040404010101010101010103030303EB
:1001F00003030303040707070C0C0C0C0C0C0C0C7A
:100200000202020206060606060606060B0B0B0B8A
:100210000B0B0B0B010210202008081020401020AF
:1002200040800201020108040201010204081020BA
:1002300040808040201008040201800402018040B8
:100240002010080402010804020101020408102021
:1002500040800102040810204080660511241FBE62
:10026000CFEFD1E2DEBFCDBF00E00CBF12E0A0E0D7
:10027000B2E0E2E8F6E100E00BBF02C007900D92A9
:10028000A034B107D9F723E0A0E4B2E001C01D9289
:10029000AC30B207E1F711E0CEE2D1E000E006C0F9
:1002A00021970109802FFE010E946108CD32D107FC
:1002B00080E00807A9F70E94B0050C943F0B0C944E
:1002C000000090E0FC01EC5EFD4F249182539E4FB4
:1002D000FC018491882399F090E0880F991FFC011C
:1002E000EC54FE4FA591B491FC01E656FE4F85916A
:1002F00094918FB7F894EC91E22BEC938FBF089513
:10030000AF92BF92CF92DF92EF92FF920F931F9323
:10031000CF93DF936C017B018B01040F151FEB0161
:100320005E01AE18BF08C017D10759F06991D60118
:10033000ED91FC910190F081E02DC6011995892B7A
:1003400079F7C501DF91CF911F910F91FF90EF9049
:10035000DF90CF90BF90AF900895FC01538D448DF6
:10036000252F30E0842F90E0821B930B541710F060
:10037000CF96089501970895FC01918D828D98176D
:1003800061F0A28DAE0FBF2FB11D5D968C91928D45
:100390009F5F9F73928F90E008958FEF9FEF089576
:1003A000FC01918D828D981731F0828DE80FF11D3F
:1003B000858D90E008958FEF9FEF0895FC01918D5A
:1003C000228D892F90E0805C9F4F821B91098F7353
:1003D0009927089587E592E00E94DE0121E0892BAC
:1003E00009F420E0822F0895FC01A48DA80FB92FF5
:1003F000B11DA35ABF4F2C91848D90E001968F734D
:100400009927848FA689B7892C93A089B1898C916B
:10041000837080648C93938D848D981306C00288BA
:10042000F389E02D80818F7D80830895EF92FF9284
:100430000F931F93CF93DF93EC0181E0888F9B8D07
:100440008C8D98131AC0E889F989808185FF15C0C1
:100450009FB7F894EE89FF896083E889F9898081E4
:100460008370806480839FBF81E090E0DF91CF91B3
:100470001F910F91FF90EF900895F62E0B8D10E0D5
:100480000F5F1F4F0F731127E02E8C8D8E110CC044
:100490000FB607FCFACFE889F989808185FFF5CF8F
:1004A000CE010E94F401F1CFEB8DEC0FFD2FF11D79
:1004B000E35AFF4FF0829FB7F8940B8FEA89FB89CC
:1004C00080818062CFCFCF93DF93EC01888D88232A
:1004D000B9F0AA89BB89E889F9898C9185FD03C0A7
:1004E000808186FD0DC00FB607FCF7CF8C9185FF8C
:1004F000F2CF808185FFEDCFCE010E94F401E9CFDC
:10050000DF91CF91089580E090E0892B29F00E943F
:10051000EA0181110E94000080E090E0892B49F0FF
:1005200080E090E0892B29F00E94000081110E9458
:10053000000080E090E0892B49F080E090E0892B7A
:1005400029F00E94000081110E94000080E090E0EC
:10055000892B49F080E090E0892B29F00E9400006F
:1005600081110C9400000895282F30E0F901EC5A15
:10057000FE4F9491F901EC5EFD4F449122533E4FA2
:10058000F9012491222309F435C0992311F19150E6
:100590009231F8F4E92FF0E08827EE52FD4F8F4FAB
:1005A0000C94610803030703E402FB02FF02E90263
:1005B0000A03100314031A031E03220328032C0347
:1005C000E902300336033A03809180008F778093ED
:1005D0008000E22FF0E0EE0FFF1FE656FE4FA591E0
:1005E000B4918FB7F894EC91611148C040954E23B7
:1005F0004C938FBF0895809180008F7DE8CF8091CC
:100600008000877FE4CF84B58F7784BDE2CF84B547
:100610008F7DFBCF8091B0008F778093B000D9CFD2
:100620008091B0008F7DF9CF809190008F7780937B
:100630009000CFCF809190008F7DF9CF8091900076
:10064000877FF5CF8091A0008F778093A000C1CFE6
:100650008091A0008F7DF9CF8091A000877FF5CF9A
:10066000809120018F7780932001B3CF809120016A
:100670008F7DF9CF80912001877FF5CF4E2BB8CFAA
:100680003FB7F8948091450290914602A0914702AD
:10069000B091480226B5A89B05C02F3F19F00196DE
:1006A000A11DB11D3FBFBA2FA92F982F8827BC01CC
:1006B000CD01620F711D811D911D42E0660F771FF4
:1006C000881F991F4A95D1F70895089590E080E01A
:1006D0000895CF93DF93EC0160E08E810E94B40215
:1006E00061E08E810E94B40260E08E810E94B402BB
:1006F0008BE891E00197F1F7DF91CF910895CF92C8
:10070000DF92EF92FF920F931F93CF93DF936C01D1
:100710007C0187E0E80EF11CD0E0C0E0062F10E07D
:10072000B8010C2E02C0759567950A94E2F76170C6
:10073000F70181917F010E94B4022196C430D10556
:1007400079F7C601DF91CF911F910F91FF90EF9044
:10075000DF90CF900C946903CF92DF92EF92FF92DB
:100760000F931F93CF93DF93EC01F62E642F8C81B0
:100770000E94B4028D818F3F19F060E00E94B402A4
:100780000F2D10E08F8584FF25C06E0187E0C80E15
:10079000D11CF12CE12CB8010E2C02C07595679587
:1007A0000A94E2F76170F60181916F010E94B40230
:1007B000FFEFEF1AFF0A88E0E816F10461F7CE01B7
:1007C000DF91CF911F910F91FF90EF90DF90CF902D
:1007D0000C946903B80184E0759567958A95E1F7F3
:1007E000CE010E947F036F2DCE01DF91CF911F912B
:1007F0000F91FF90EF90DF90CF900C947F0340E03B
:10080000682F84EF92E00C94AC03CF93DF93823097
:1008100029F4909103039860909303038093070356
:100820001092080380E48093090380E180930A0317
:1008300080E580930B038091F8020E946101809112
:10084000F9028F3F11F00E9461018091FA020E942B
:100850006101C4EFD2E09E01245F32408091030326
:1008600084FD0AC084E090E02196281739073CF403
:100870008E810E946101EFCF88E090E0F5CF8BE39D
:100880009DE00197F1F760E08091F8020E94B402C8
:1008900060E08091FA020E94B4028091F9028F3FD9
:1008A00019F060E00E94B4028091030384FD39C016
:1008B00063E084EF92E00E947F03CBE4D6E4CE01B4
:1008C0000197F1F763E084EF92E00E947F032197A4
:1008D000F1F763E084EF92E00E947F0383E592E00A
:1008E0000197F1F762E084EF92E00E947F0380912C
:1008F000030380620E94FF0384E0809304038CE082
:100900000E94FF0381E00E94FF038BE39FE10197B8
:10091000F1F782E08093050386E0DF91CF910C949C
:10092000FF0380620E94FF038BE496E40197F1F7D6
:100930008091030380620E94FF0383E592E00197A8
:10094000F1F78091030380620E94FF03D0CF41E062
:100950000E94AC0381E090E00895FB01019000202B
:10096000E9F73197AF01461B570BDC01ED91FC9184
:100970000280F381E02D19941F920F920FB60F920F
:1009800011240BB60F922F933F934F935F936F9366
:100990007F938F939F93AF93BF93EF93FF9387E5DD
:1009A00092E00E94F401FF91EF91BF91AF919F916E
:1009B0008F917F916F915F914F913F912F910F9008
:1009C0000BBE0F900FBE0F901F9018951F920F92A5
:1009D0000FB60F9211240BB60F922F938F939F9304
:1009E000EF93FF93E0916702F09168028081E091BC
:1009F0006D02F0916E0282FD1DC0908180917002A7
:100A00008F5F8F7320917102821741F0E091700225
:100A1000F0E0E95AFD4F958F80937002FF91EF91BE
:100A20009F918F912F910F900BBE0F900FBE0F9043
:100A30001F9018958081F2CF1F920F920FB60F92E0
:100A400011242F933F938F939F93AF93BF938091E4
:100A5000410290914202A0914302B0914402309130
:100A6000400223E0230F2D3758F50196A11DB11D3B
:100A7000209340028093410290934202A09343024C
:100A8000B09344028091450290914602A0914702A2
:100A9000B09148020196A11DB11D8093450290932B
:100AA0004602A0934702B0934802BF91AF919F9135
:100AB0008F913F912F910F900FBE0F901F9018951F
:100AC00026E8230F0296A11DB11DD2CFE7E5F2E083
:100AD0001382128288EE93E0A0E0B0E084839583D5
:100AE000A683B78388E092E09183808385EC90E0D1
:100AF0009587848784EC90E09787868780EC90E0E8
:100B0000918B808B81EC90E0938B828B82EC90E0D8
:100B1000958B848B86EC90E0978B868B118E128E52
:100B2000138E148EE4EFF2E0138212828AE192E0D7
:100B30009183808389E084838FEF858388E0868337
:100B400085E0878384E0808783E0818782E08287F5
:100B50001386148615861686178681E00C94050484
:100B6000CF93DF93CDB7DEB7A1970FB6F894DEBF72
:100B70000FBECDBF789484B5826084BD84B581609A
:100B800084BD85B5826085BD85B5816085BD809158
:100B90006E00816080936E001092810080918100D0
:100BA00082608093810080918100816080938100C8
:100BB000809180008160809380008091B10084608A
:100BC0008093B1008091B00081608093B0008091EB
:100BD0009100826080939100809191008160809368
:100BE0009100809190008160809390008091A1009D
:100BF00082608093A1008091A10081608093A10018
:100C00008091A00081608093A0008091210182608A
:100C10008093210180912101816080932101809145
:100C2000200181608093200180917A00846080930C
:100C30007A0080917A00826080937A0080917A00B5
:100C4000816080937A0080917A00806880937A0036
:100C50001092C10080917B00877F80937B0080E4AD
:100C600080937C0080917A00806480937A008091E8
:100C70007A0086FDFCCF6091780070917900072E94
:100C8000000C880B990B611571058105910511F018
:100C90000E94F507E0916702F091680282E080838C
:100CA000E0916302F09164021082E0916502F0919C
:100CB00066028FEC808310926F02E0916B02F091DC
:100CC0006C0286E08083E0916902F0916A02808183
:100CD00080618083E0916902F0916A02808188607E
:100CE0008083E0916902F0916A028081806880834C
:100CF000E0916902F0916A0280818F7D808382E0B9
:100D00000E94050499E4292E92E0392E2AE0422E11
:100D1000512C612C712C0E94A60729E130E040E0A3
:100D200050E00E94FE0768537F4F8F4F9F4F709394
:100D30005602609355020E94A60724E030E040E08E
:100D400050E00E94FE07645F7F4F8F4F9F4F70936C
:100D50005402609353020E94A60723E030E040E073
:100D600050E00E94FE07DC01CB014C96A11DB11D95
:100D70009F938F93809154028F93809153028F930E
:100D8000809156028F93809155028F9382E292E078
:100D90009F938F933F922F920E94690869E472E0BB
:100DA00087E592E00E94AD046BE272E087E592E095
:100DB0000E94AD046EE272E084EF92E00E94AD0406
:100DC000E09107030FB6F894DEBF0FBECDBFE2304F
:100DD00008F06CC0E150F0E0EC50FD4F84898A5F70
:100DE00080680E94FF03209155023091560250E026
:100DF00040E019A28E010F5D1F4FCA01B901A30186
:100E000092010E943008605DF80162938F01211504
:100E100031054105510589F7309729F0BF0184EF6D
:100E200092E00E94AD04E0910703E23008F040C078
:100E3000E150F0E0EC50FD4F8489875F80680E94AC
:100E4000FF036EE372E084EF92E00E94AD040E9423
:100E500040036B017C0180ED882E87E0982EA12C49
:100E6000B12C0E9440036C197D098E099F09683ED0
:100E7000734081059105A8F3F1E08F1A9108A1084C
:100E8000B10828EEC20E23E0D21EE11CF11C811431
:100E90009104A104B10429F781E00E94FF038BE3D0
:100EA0009FE10197F1F70E94830235CFE1E093CFF4
:100EB000E1E0BFCF8F929F92AF92BF92CF92DF922D
:100EC000EF92FF92CF93DF93EC01688179818A8161
:100ED0009B81611571058105910521F464E279ED2D
:100EE0008BE597E02DE133EF41E050E00E94FE07F3
:100EF00049015A019B01AC01A7EAB1E40E941D0817
:100F00006B017C01ACEEB4EFA50194010E942B08AB
:100F1000C60ED71EE81EF91EF7FE06C081E0C81AED
:100F2000D108E10880E8F80AC882D982EA82FB8207
:100F3000C701B6019F77DF91CF91FF90EF90DF90CF
:100F4000CF90BF90AF909F908F9008958F929F9277
:100F5000AF92BF92CF92DF92EF92FF926091000228
:100F60007091010280910202909103026115710556
:100F70008105910521F464E279ED8BE597E02DE19F
:100F800033EF41E050E00E94FE0749015A019B0106
:100F9000AC01A7EAB1E40E941D086B017C01ACEE34
:100FA000B4EFA50194010E942B08C60ED71EE81EBF
:100FB000F91EF7FE06C081E0C81AD108E10880E8F2
:100FC000F80AC0920002D0920102E0920202F0926E
:100FD0000302C701B6019F77FF90EF90DF90CF909B
:100FE000BF90AF909F908F90089560930002709390
:100FF000010280930202909303020895052E97FB4D
:101000001EF400940E94150857FD07D00E94300876
:1010100007FC03D04EF40C9415085095409530957C
:1010200021953F4F4F4F5F4F089590958095709554
:1010300061957F4F8F4F9F4F08950E945208A59F43
:10104000900DB49F900DA49F800D911D11240895C3
:10105000B7FF0C941D080E941D08821B930B089576
:10106000A1E21A2EAA1BBB1BFD010DC0AA1FBB1FAC
:10107000EE1FFF1FA217B307E407F50720F0A21B1E
:10108000B30BE40BF50B661F771F881F991F1A948B
:1010900069F760957095809590959B01AC01BD01B5
:1010A000CF010895A29FB001B39FC001A39F700D0F
:1010B000811D1124911DB29F700D811D1124911D60
:1010C0000895EE0FFF1F881F8BBF0790F691E02D4C
:1010D00019940F931F93CF93DF93CDB7DEB72E975D
:1010E0000FB6F894DEBF0FBECDBF0E891F8986E014
:1010F0008C831A8309838FEF9FE79E838D83AE01D4
:10110000465E5F4F688D798DCE0101960E949908E9
:101110002F813885020F131FF80110822E960FB60B
:10112000F894DEBF0FBECDBFDF91CF911F910F911D
:1011300008952F923F924F925F926F927F928F927B
:101140009F92AF92BF92CF92DF92EF92FF920F9356
:101150001F93CF93DF9300D000D000D01F921F9237
:10116000CDB7DEB77C013B018A01FC0117821682F4
:10117000838181FFDDC1CE0101965C01F70193817E
:10118000F30193FD859193FF81913F01882309F439
:1011900053C1853239F493FD859193FF81913F01CD
:1011A000853229F4B70190E00E94B10AE7CF912C73
:1011B000212C312CFFE1F31538F08B3211F190F432
:1011C000803209F1833229F137FC3CC020ED280F31
:1011D0002A3050F536FE20C08AE0989E200D11245A
:1011E000922E06C08D3291F0803371F7689430F8FA
:1011F000F30193FD859193FF81913F018111DACF36
:1012000021C0689431F8689432F8F2CF689433F8CA
:10121000EFCF689434F8ECCFEAE02E9E200D112435
:10122000222E689435F8E4CF8E3229F436FC04C1BE
:10123000689436F8DDCF8C3619F4689437F8D8CF37
:101240008836B1F2982F9F7D95549330E0F0833625
:10125000A1F18337C1F1833509F063C02801F2E0C1
:101260004F0E511CF801C080D180692D70E036FC12
:1012700002C06FEF7FEFC6010E949B0A4C01689489
:1012800037F882010AC00C5F1F4FFFE3F9838824FF
:101290008394912C6501E89437F833FE2DC0522CCD
:1012A0008114910471F5552009F468CFB70180E2EB
:1012B00090E00E94B10A5A94F6CFF80180818983A8
:1012C0000E5F1F4FE4CF2801F2E04F0E511CF801D2
:1012D000C080D180692D70E036FC02C06FEF7FEFD7
:1012E000C6010E94A60A4C018201D5CFB70180E257
:1012F00090E00E94B10A2A942814190409F0B0F76A
:10130000CECFF60137FC859137FE81916F01B70191
:1013100090E00E94B10A51105A94F1E08F1A91089E
:10132000BFCF843619F0893609F077C0F80137FE4F
:101330006BC060817181828193810C5F1F4FF32D9F
:10134000FF763F2E97FF09C0909580957095619527
:101350007F4F8F4F9F4F689437F82AE030E0A50108
:101360000E94E10AC82ECA188C2C432C36FE0CC0F1
:10137000E89440F8C91440F434FE05C032FC03C0C0
:10138000F32DFE7E4F2E892C44FEAAC0FE01EC0DEB
:10139000F11D8081803309F09CC0242D297E422ECE
:1013A000842D8870582E43FCAAC040FEA4C09C2CFB
:1013B000821418F42C0C922C981844FEA6C0B70185
:1013C00080E390E00E94B10A42FE09C088E790E005
:1013D00041FE02C088E590E0B7010E94B10AC9143D
:1013E00008F49FC0CA94D12C9FEFC91AD90ACA0C1D
:1013F000DB1CF60182916F01B70190E00E94B10AF7
:10140000AC14BD04B1F74FCF60817181072E000C81
:10141000880B990B0E5F1F4F92CFD32CE894D4F812
:101420002AE030E08537E1F1232D297FD22E8F3657
:10143000A9F1F0F4883551F1F701868197812B9657
:101440000FB6F894DEBF0FBECDBFDF91CF911F91D5
:101450000F91FF90EF90DF90CF90BF90AF909F9053
:101460008F907F906F905F904F903F902F90089556
:10147000803749F0883701F7D4FE02C06894D2F86B
:1014800020E130E00DC06894D4F8F6CF34FE03C0FC
:10149000822F8660D82E20E132E002C028E030E0C2
:1014A000F801D7FE0FC060817181828193810C5F4A
:1014B0001F4FA5010E94E10AC82ECA183D2CE894CE
:1014C00037F852CF6081718190E080E00E5F1F4F4E
:1014D000F0CF42FC02C0839463CF8394839460CFA7
:1014E000842D867809F45CCFF6CFB70180E290E0D6
:1014F0000E94B10A83948214C0F3512C5ECF522C07
:101500005818821408F459CFF8CF842D867809F43E
:1015100066CF8BE241FE80E247FC8DE2B70190E0AE
:101520005CCFB70180E390E00E94B10A9A9457CF54
:101530008FEF9FEF84CFFC01059061507040011048
:10154000D8F7809590958E0F9F1F0895FC016150EC
:10155000704001900110D8F7809590958E0F9F1FD5
:1015600008950F931F93CF93DF93182F092FEB014B
:101570008B8181FD09C01FEF0FEF812F902FDF912D
:10158000CF911F910F91089582FF14C02E813F814A
:101590008C819D81281739073CF4E881F981CF01BE
:1015A00001969983888310838E819F8101969F8302
:1015B0008E83E3CFE885F985812F1995892BA1F3D7
:1015C000DACFFA01AA27283051F1203181F1E894CD
:1015D0006F936E7F6E5F7F4F8F4F9F4FAF4FB1E026
:1015E0003ED0B4E03CD0670F781F891F9A1FA11D21
:1015F000680F791F8A1F911DA11D6A0F711D811D22
:10160000911DA11D20D009F468943F912AE0269FE6
:1016100011243019305D3193DEF6CF010895462F45
:101620004770405D4193B3E00FD0C9F7F6CF462F26
:101630004F70405D4A3318F0495D31FD405241938F
:1016400002D0A9F7EACFB4E0A6959795879577954C
:101650006795BA95C9F700976105710508959B01D3
:10166000AC010A2E06945795479537952795BA955C
:10167000C9F7620F731F841F951FA01D0895F8946A
:02168000FFCF9A
:10168200010000000000000016028001AD016302AB
:10169200DE01BC01D00100000000A7048001660346
:1016A200650325752C25752C2575000D0A005465DA
:1016B2006E73696F6E206465207265643A0056002D
:00000001FF
